{
  "_format": "hh-sol-artifact-1",
  "contractName": "CoinFlip",
  "sourceName": "contracts/CoinFlip.sol",
  "abi": [
    {
      "inputs": [],
      "stateMutability": "nonpayable",
      "type": "constructor"
    },
    {
      "anonymous": false,
      "inputs": [
        {
          "indexed": true,
          "internalType": "address",
          "name": "previousOwner",
          "type": "address"
        },
        {
          "indexed": true,
          "internalType": "address",
          "name": "newOwner",
          "type": "address"
        }
      ],
      "name": "OwnershipTransferred",
      "type": "event"
    },
    {
      "anonymous": false,
      "inputs": [
        {
          "indexed": false,
          "internalType": "address",
          "name": "sender",
          "type": "address"
        },
        {
          "indexed": false,
          "internalType": "uint256",
          "name": "newBalance",
          "type": "uint256"
        }
      ],
      "name": "balanceChanged",
      "type": "event"
    },
    {
      "inputs": [],
      "name": "addBalance",
      "outputs": [],
      "stateMutability": "payable",
      "type": "function"
    },
    {
      "inputs": [
        {
          "internalType": "address",
          "name": "",
          "type": "address"
        }
      ],
      "name": "balance",
      "outputs": [
        {
          "internalType": "uint256",
          "name": "",
          "type": "uint256"
        }
      ],
      "stateMutability": "view",
      "type": "function"
    },
    {
      "inputs": [
        {
          "internalType": "uint256",
          "name": "_newEdge",
          "type": "uint256"
        }
      ],
      "name": "changeHouseEdge",
      "outputs": [],
      "stateMutability": "nonpayable",
      "type": "function"
    },
    {
      "inputs": [
        {
          "internalType": "address payable",
          "name": "_newHolder",
          "type": "address"
        }
      ],
      "name": "changeHouseHolder",
      "outputs": [],
      "stateMutability": "nonpayable",
      "type": "function"
    },
    {
      "inputs": [],
      "name": "getContractBalance",
      "outputs": [
        {
          "internalType": "uint256",
          "name": "",
          "type": "uint256"
        }
      ],
      "stateMutability": "view",
      "type": "function"
    },
    {
      "inputs": [],
      "name": "getPlayerBalance",
      "outputs": [
        {
          "internalType": "uint256",
          "name": "",
          "type": "uint256"
        }
      ],
      "stateMutability": "view",
      "type": "function"
    },
    {
      "inputs": [],
      "name": "houseBalance",
      "outputs": [
        {
          "internalType": "uint256",
          "name": "",
          "type": "uint256"
        }
      ],
      "stateMutability": "view",
      "type": "function"
    },
    {
      "inputs": [],
      "name": "houseEdge",
      "outputs": [
        {
          "internalType": "uint256",
          "name": "",
          "type": "uint256"
        }
      ],
      "stateMutability": "view",
      "type": "function"
    },
    {
      "inputs": [],
      "name": "houseHolder",
      "outputs": [
        {
          "internalType": "address payable",
          "name": "",
          "type": "address"
        }
      ],
      "stateMutability": "view",
      "type": "function"
    },
    {
      "inputs": [],
      "name": "owner",
      "outputs": [
        {
          "internalType": "address",
          "name": "",
          "type": "address"
        }
      ],
      "stateMutability": "view",
      "type": "function"
    },
    {
      "inputs": [
        {
          "internalType": "uint256",
          "name": "_guess",
          "type": "uint256"
        },
        {
          "internalType": "uint256",
          "name": "_amount",
          "type": "uint256"
        }
      ],
      "name": "play",
      "outputs": [
        {
          "internalType": "uint256",
          "name": "",
          "type": "uint256"
        }
      ],
      "stateMutability": "nonpayable",
      "type": "function"
    },
    {
      "inputs": [],
      "name": "renounceOwnership",
      "outputs": [],
      "stateMutability": "nonpayable",
      "type": "function"
    },
    {
      "inputs": [
        {
          "internalType": "address",
          "name": "newOwner",
          "type": "address"
        }
      ],
      "name": "transferOwnership",
      "outputs": [],
      "stateMutability": "nonpayable",
      "type": "function"
    },
    {
      "inputs": [],
      "name": "withdrawHouseBalance",
      "outputs": [],
      "stateMutability": "nonpayable",
      "type": "function"
    },
    {
      "inputs": [
        {
          "internalType": "bool",
          "name": "_all",
          "type": "bool"
        },
        {
          "internalType": "uint256",
          "name": "_amount",
          "type": "uint256"
        }
      ],
      "name": "withdrawPlayerBalance",
      "outputs": [],
      "stateMutability": "nonpayable",
      "type": "function"
    }
  ],
  "bytecode": "0x608060405234801561001057600080fd5b5061002d61002261007b60201b60201c565b61008360201b60201c565b600560018190555033600360006101000a81548173ffffffffffffffffffffffffffffffffffffffff021916908373ffffffffffffffffffffffffffffffffffffffff160217905550610147565b600033905090565b60008060009054906101000a900473ffffffffffffffffffffffffffffffffffffffff169050816000806101000a81548173ffffffffffffffffffffffffffffffffffffffff021916908373ffffffffffffffffffffffffffffffffffffffff1602179055508173ffffffffffffffffffffffffffffffffffffffff168173ffffffffffffffffffffffffffffffffffffffff167f8be0079c531659141344cd1fd0a4f28419497f9722a3daafe3b4186f6b6457e060405160405180910390a35050565b611b6d806101566000396000f3fe6080604052600436106100e85760003560e01c8063944746f01161008a578063dd60808411610059578063dd6080841461028d578063e3d670d7146102b6578063e8244d48146102f3578063f2fde38b1461031c576100e8565b8063944746f014610218578063b163cc3814610241578063c7bafdcb1461024b578063d667dcd714610262576100e8565b80636f9fb98a116100c65780636f9fb98a1461016e578063715018a6146101995780637bc49a95146101b05780638da5cb5b146101ed576100e8565b80630b01517c146100ed5780631ec603e31461011857806367084eb314610143575b600080fd5b3480156100f957600080fd5b50610102610345565b60405161010f919061186d565b60405180910390f35b34801561012457600080fd5b5061012d61038c565b60405161013a9190611709565b60405180910390f35b34801561014f57600080fd5b506101586103b2565b604051610165919061186d565b60405180910390f35b34801561017a57600080fd5b506101836103b8565b604051610190919061186d565b60405180910390f35b3480156101a557600080fd5b506101ae61043c565b005b3480156101bc57600080fd5b506101d760048036038101906101d29190611269565b6104c4565b6040516101e4919061186d565b60405180910390f35b3480156101f957600080fd5b50610202610818565b60405161020f91906116ee565b60405180910390f35b34801561022457600080fd5b5061023f600480360381019061023a91906111db565b610841565b005b610249610901565b005b34801561025757600080fd5b50610260610a73565b005b34801561026e57600080fd5b50610277610b64565b604051610284919061186d565b60405180910390f35b34801561029957600080fd5b506102b460048036038101906102af9190611204565b610b6a565b005b3480156102c257600080fd5b506102dd60048036038101906102d891906111b2565b610eef565b6040516102ea919061186d565b60405180910390f35b3480156102ff57600080fd5b5061031a60048036038101906103159190611240565b610f07565b005b34801561032857600080fd5b50610343600480360381019061033e91906111b2565b610f9a565b005b6000600460003373ffffffffffffffffffffffffffffffffffffffff1673ffffffffffffffffffffffffffffffffffffffff16815260200190815260200160002054905090565b600360009054906101000a900473ffffffffffffffffffffffffffffffffffffffff1681565b60025481565b60006103c2611092565b73ffffffffffffffffffffffffffffffffffffffff166103e0610818565b73ffffffffffffffffffffffffffffffffffffffff1614610436576040517f08c379a000000000000000000000000000000000000000000000000000000000815260040161042d9061182d565b60405180910390fd5b47905090565b610444611092565b73ffffffffffffffffffffffffffffffffffffffff16610462610818565b73ffffffffffffffffffffffffffffffffffffffff16146104b8576040517f08c379a00000000000000000000000000000000000000000000000000000000081526004016104af9061182d565b60405180910390fd5b6104c2600061109a565b565b600060018314806104d55750600083145b610514576040517f08c379a000000000000000000000000000000000000000000000000000000000815260040161050b906117ad565b60405180910390fd5b6509184e72a000600460003373ffffffffffffffffffffffffffffffffffffffff1673ffffffffffffffffffffffffffffffffffffffff16815260200190815260200160002054101561059c576040517f08c379a00000000000000000000000000000000000000000000000000000000081526004016105939061184d565b60405180910390fd5b67016345785d8a00008210156105e7576040517f08c379a00000000000000000000000000000000000000000000000000000000081526004016105de906117ed565b60405180910390fd5b81600460003373ffffffffffffffffffffffffffffffffffffffff1673ffffffffffffffffffffffffffffffffffffffff168152602001908152602001600020541015610669576040517f08c379a00000000000000000000000000000000000000000000000000000000081526004016106609061176d565b60405180910390fd5b6000600244426040518060400160405280600060ff168152602001600160ff1681525060405160200161069e939291906116b1565b6040516020818303038152906040528051906020012060001c6106c19190611a4c565b9050838114156107265782600460003373ffffffffffffffffffffffffffffffffffffffff1673ffffffffffffffffffffffffffffffffffffffff168152602001908152602001600020600082825461071a91906118c6565b92505081905550610796565b826002600082825461073891906118c6565b9250508190555082600460003373ffffffffffffffffffffffffffffffffffffffff1673ffffffffffffffffffffffffffffffffffffffff168152602001908152602001600020600082825461078e91906119a7565b925050819055505b7ff728d058f2d38126dbb1fa30ee60cc67bbe206b4403f770aba9d51def2f0143533600460003373ffffffffffffffffffffffffffffffffffffffff1673ffffffffffffffffffffffffffffffffffffffff16815260200190815260200160002054604051610806929190611724565b60405180910390a18091505092915050565b60008060009054906101000a900473ffffffffffffffffffffffffffffffffffffffff16905090565b610849611092565b73ffffffffffffffffffffffffffffffffffffffff16610867610818565b73ffffffffffffffffffffffffffffffffffffffff16146108bd576040517f08c379a00000000000000000000000000000000000000000000000000000000081526004016108b49061182d565b60405180910390fd5b80600360006101000a81548173ffffffffffffffffffffffffffffffffffffffff021916908373ffffffffffffffffffffffffffffffffffffffff16021790555050565b67016345785d8a000034101561094c576040517f08c379a00000000000000000000000000000000000000000000000000000000081526004016109439061180d565b60405180910390fd5b6064600154606461095d91906119a7565b34610968919061194d565b610972919061191c565b600460003373ffffffffffffffffffffffffffffffffffffffff1673ffffffffffffffffffffffffffffffffffffffff16815260200190815260200160002060008282546109c091906118c6565b925050819055506064600154346109d7919061194d565b6109e1919061191c565b600260008282546109f291906118c6565b925050819055507ff728d058f2d38126dbb1fa30ee60cc67bbe206b4403f770aba9d51def2f0143533600460003373ffffffffffffffffffffffffffffffffffffffff1673ffffffffffffffffffffffffffffffffffffffff16815260200190815260200160002054604051610a69929190611724565b60405180910390a1565b610a7b611092565b73ffffffffffffffffffffffffffffffffffffffff16610a99610818565b73ffffffffffffffffffffffffffffffffffffffff1614610aef576040517f08c379a0000000000000000000000000000000000000000000000000000000008152600401610ae69061182d565b60405180910390fd5b600360009054906101000a900473ffffffffffffffffffffffffffffffffffffffff1673ffffffffffffffffffffffffffffffffffffffff166108fc6002549081150290604051600060405180830381858888f19350505050158015610b59573d6000803e3d6000fd5b506000600281905550565b60015481565b6000600460003373ffffffffffffffffffffffffffffffffffffffff1673ffffffffffffffffffffffffffffffffffffffff1681526020019081526020016000205411610bb657600080fd5b8115610d1b57600460003373ffffffffffffffffffffffffffffffffffffffff1673ffffffffffffffffffffffffffffffffffffffff1681526020019081526020016000205460025447610c0a91906119a7565b1015610c4b576040517f08c379a0000000000000000000000000000000000000000000000000000000008152600401610c429061174d565b60405180910390fd5b3373ffffffffffffffffffffffffffffffffffffffff166108fc600460003373ffffffffffffffffffffffffffffffffffffffff1673ffffffffffffffffffffffffffffffffffffffff168152602001908152602001600020549081150290604051600060405180830381858888f19350505050158015610cd0573d6000803e3d6000fd5b506000600460003373ffffffffffffffffffffffffffffffffffffffff1673ffffffffffffffffffffffffffffffffffffffff16815260200190815260200160002081905550610e73565b80600460003373ffffffffffffffffffffffffffffffffffffffff1673ffffffffffffffffffffffffffffffffffffffff168152602001908152602001600020541015610d9d576040517f08c379a0000000000000000000000000000000000000000000000000000000008152600401610d94906117cd565b60405180910390fd5b3373ffffffffffffffffffffffffffffffffffffffff166108fc829081150290604051600060405180830381858888f19350505050158015610de3573d6000803e3d6000fd5b5080600460003373ffffffffffffffffffffffffffffffffffffffff1673ffffffffffffffffffffffffffffffffffffffff16815260200190815260200160002054610e2f91906119a7565b600460003373ffffffffffffffffffffffffffffffffffffffff1673ffffffffffffffffffffffffffffffffffffffff168152602001908152602001600020819055505b7ff728d058f2d38126dbb1fa30ee60cc67bbe206b4403f770aba9d51def2f0143533600460003373ffffffffffffffffffffffffffffffffffffffff1673ffffffffffffffffffffffffffffffffffffffff16815260200190815260200160002054604051610ee3929190611724565b60405180910390a15050565b60046020528060005260406000206000915090505481565b610f0f611092565b73ffffffffffffffffffffffffffffffffffffffff16610f2d610818565b73ffffffffffffffffffffffffffffffffffffffff1614610f83576040517f08c379a0000000000000000000000000000000000000000000000000000000008152600401610f7a9061182d565b60405180910390fd5b605a8110610f9057600080fd5b8060018190555050565b610fa2611092565b73ffffffffffffffffffffffffffffffffffffffff16610fc0610818565b73ffffffffffffffffffffffffffffffffffffffff1614611016576040517f08c379a000000000000000000000000000000000000000000000000000000000815260040161100d9061182d565b60405180910390fd5b600073ffffffffffffffffffffffffffffffffffffffff168173ffffffffffffffffffffffffffffffffffffffff161415611086576040517f08c379a000000000000000000000000000000000000000000000000000000000815260040161107d9061178d565b60405180910390fd5b61108f8161109a565b50565b600033905090565b60008060009054906101000a900473ffffffffffffffffffffffffffffffffffffffff169050816000806101000a81548173ffffffffffffffffffffffffffffffffffffffff021916908373ffffffffffffffffffffffffffffffffffffffff1602179055508173ffffffffffffffffffffffffffffffffffffffff168173ffffffffffffffffffffffffffffffffffffffff167f8be0079c531659141344cd1fd0a4f28419497f9722a3daafe3b4186f6b6457e060405160405180910390a35050565b60008135905061116d81611adb565b92915050565b60008135905061118281611af2565b92915050565b60008135905061119781611b09565b92915050565b6000813590506111ac81611b20565b92915050565b6000602082840312156111c457600080fd5b60006111d28482850161115e565b91505092915050565b6000602082840312156111ed57600080fd5b60006111fb84828501611173565b91505092915050565b6000806040838503121561121757600080fd5b600061122585828601611188565b92505060206112368582860161119d565b9150509250929050565b60006020828403121561125257600080fd5b60006112608482850161119d565b91505092915050565b6000806040838503121561127c57600080fd5b600061128a8582860161119d565b925050602061129b8582860161119d565b9150509250929050565b60006112b183836116a2565b60208301905092915050565b6112c6816119ed565b82525050565b6112d5816119db565b82525050565b6112e481611892565b6112ee81846118aa565b92506112f982611888565b8060005b8381101561132a57815161131187826112a5565b965061131c8361189d565b9250506001810190506112fd565b505050505050565b600061133f6050836118b5565b91507f576520646f6e2774206861766520656e6f75676820657468657220746f20706160008301527f7920796f75206261636b203a292e20546869732077696c6c206265206669786560208301527f6420696e2073686f72742074696d652e000000000000000000000000000000006040830152606082019050919050565b60006113cb6020836118b5565b91507f596f7520646f6e7420686176652074686973206d756368206f662065746865726000830152602082019050919050565b600061140b6026836118b5565b91507f4f776e61626c653a206e6577206f776e657220697320746865207a65726f206160008301527f64647265737300000000000000000000000000000000000000000000000000006020830152604082019050919050565b6000611471601b836118b5565b91507f596f75722067756573732073686f756c642062652030206f72203100000000006000830152602082019050919050565b60006114b1602f836118b5565b91507f596f7520646f6e7420686176652074686973206d756368206f6620657468657260008301527f206f6e20796f752062616c616e636500000000000000000000000000000000006020830152604082019050919050565b60006115176027836118b5565b91507f596f752073686f756c64206174206c6561737420706c6179207769746820302e60008301527f31206574686572000000000000000000000000000000000000000000000000006020830152604082019050919050565b600061157d6022836118b5565b91507f596f752073686f756c642073656e64206174206c6561737420302e312065746860008301527f65720000000000000000000000000000000000000000000000000000000000006020830152604082019050919050565b60006115e36020836118b5565b91507f4f776e61626c653a2063616c6c6572206973206e6f7420746865206f776e65726000830152602082019050919050565b60006116236022836118b5565b91507f596f7520646f6e74206861766520656e6f75676820657468657220746f20706c60008301527f61790000000000000000000000000000000000000000000000000000000000006020830152604082019050919050565b61168581611a2b565b82525050565b61169c61169782611a2b565b611a42565b82525050565b6116ab81611a35565b82525050565b60006116bd828661168b565b6020820191506116cd828561168b565b6020820191506116dd82846112db565b604082019150819050949350505050565b600060208201905061170360008301846112cc565b92915050565b600060208201905061171e60008301846112bd565b92915050565b600060408201905061173960008301856112cc565b611746602083018461167c565b9392505050565b6000602082019050818103600083015261176681611332565b9050919050565b60006020820190508181036000830152611786816113be565b9050919050565b600060208201905081810360008301526117a6816113fe565b9050919050565b600060208201905081810360008301526117c681611464565b9050919050565b600060208201905081810360008301526117e6816114a4565b9050919050565b600060208201905081810360008301526118068161150a565b9050919050565b6000602082019050818103600083015261182681611570565b9050919050565b60006020820190508181036000830152611846816115d6565b9050919050565b6000602082019050818103600083015261186681611616565b9050919050565b6000602082019050611882600083018461167c565b92915050565b6000819050919050565b600060029050919050565b6000602082019050919050565b600081905092915050565b600082825260208201905092915050565b60006118d182611a2b565b91506118dc83611a2b565b9250827fffffffffffffffffffffffffffffffffffffffffffffffffffffffffffffffff0382111561191157611910611a7d565b5b828201905092915050565b600061192782611a2b565b915061193283611a2b565b92508261194257611941611aac565b5b828204905092915050565b600061195882611a2b565b915061196383611a2b565b9250817fffffffffffffffffffffffffffffffffffffffffffffffffffffffffffffffff048311821515161561199c5761199b611a7d565b5b828202905092915050565b60006119b282611a2b565b91506119bd83611a2b565b9250828210156119d0576119cf611a7d565b5b828203905092915050565b60006119e682611a0b565b9050919050565b60006119f882611a0b565b9050919050565b60008115159050919050565b600073ffffffffffffffffffffffffffffffffffffffff82169050919050565b6000819050919050565b600060ff82169050919050565b6000819050919050565b6000611a5782611a2b565b9150611a6283611a2b565b925082611a7257611a71611aac565b5b828206905092915050565b7f4e487b7100000000000000000000000000000000000000000000000000000000600052601160045260246000fd5b7f4e487b7100000000000000000000000000000000000000000000000000000000600052601260045260246000fd5b611ae4816119db565b8114611aef57600080fd5b50565b611afb816119ed565b8114611b0657600080fd5b50565b611b12816119ff565b8114611b1d57600080fd5b50565b611b2981611a2b565b8114611b3457600080fd5b5056fea2646970667358221220fcc033b849dc17d28a81a249d62d24d19fc40310a5dd97c4cb3241931f9bb72964736f6c63430008000033",
  "linkReferences": {},
  "deployedLinkReferences": {}
}