{
  "_format": "hh-sol-artifact-1",
  "contractName": "CoinFlip",
  "sourceName": "contracts/CoinFlip.sol",
  "abi": [
    {
      "inputs": [],
      "stateMutability": "nonpayable",
      "type": "constructor"
    },
    {
      "anonymous": false,
      "inputs": [
        {
          "indexed": true,
          "internalType": "address",
          "name": "previousOwner",
          "type": "address"
        },
        {
          "indexed": true,
          "internalType": "address",
          "name": "newOwner",
          "type": "address"
        }
      ],
      "name": "OwnershipTransferred",
      "type": "event"
    },
    {
      "anonymous": false,
      "inputs": [
        {
          "indexed": false,
          "internalType": "address",
          "name": "sender",
          "type": "address"
        },
        {
          "indexed": false,
          "internalType": "uint256",
          "name": "newBalance",
          "type": "uint256"
        }
      ],
      "name": "balanceChanged",
      "type": "event"
    },
    {
      "inputs": [],
      "name": "addBalance",
      "outputs": [],
      "stateMutability": "payable",
      "type": "function"
    },
    {
      "inputs": [
        {
          "internalType": "address",
          "name": "",
          "type": "address"
        }
      ],
      "name": "balance",
      "outputs": [
        {
          "internalType": "uint256",
          "name": "",
          "type": "uint256"
        }
      ],
      "stateMutability": "view",
      "type": "function"
    },
    {
      "inputs": [
        {
          "internalType": "uint256",
          "name": "_newEdge",
          "type": "uint256"
        }
      ],
      "name": "changeHouseEdge",
      "outputs": [],
      "stateMutability": "nonpayable",
      "type": "function"
    },
    {
      "inputs": [
        {
          "internalType": "address payable",
          "name": "_newHolder",
          "type": "address"
        }
      ],
      "name": "changeHouseHolder",
      "outputs": [],
      "stateMutability": "nonpayable",
      "type": "function"
    },
    {
      "inputs": [],
      "name": "getContractBalance",
      "outputs": [
        {
          "internalType": "uint256",
          "name": "",
          "type": "uint256"
        }
      ],
      "stateMutability": "view",
      "type": "function"
    },
    {
      "inputs": [],
      "name": "getPlayerBalance",
      "outputs": [
        {
          "internalType": "uint256",
          "name": "",
          "type": "uint256"
        }
      ],
      "stateMutability": "view",
      "type": "function"
    },
    {
      "inputs": [],
      "name": "houseBalance",
      "outputs": [
        {
          "internalType": "uint256",
          "name": "",
          "type": "uint256"
        }
      ],
      "stateMutability": "view",
      "type": "function"
    },
    {
      "inputs": [],
      "name": "houseEdge",
      "outputs": [
        {
          "internalType": "uint256",
          "name": "",
          "type": "uint256"
        }
      ],
      "stateMutability": "view",
      "type": "function"
    },
    {
      "inputs": [],
      "name": "houseHolder",
      "outputs": [
        {
          "internalType": "address payable",
          "name": "",
          "type": "address"
        }
      ],
      "stateMutability": "view",
      "type": "function"
    },
    {
      "inputs": [],
      "name": "owner",
      "outputs": [
        {
          "internalType": "address",
          "name": "",
          "type": "address"
        }
      ],
      "stateMutability": "view",
      "type": "function"
    },
    {
      "inputs": [
        {
          "internalType": "uint256",
          "name": "_guess",
          "type": "uint256"
        },
        {
          "internalType": "uint256",
          "name": "_amount",
          "type": "uint256"
        }
      ],
      "name": "play",
      "outputs": [
        {
          "internalType": "uint256",
          "name": "",
          "type": "uint256"
        }
      ],
      "stateMutability": "nonpayable",
      "type": "function"
    },
    {
      "inputs": [],
      "name": "renounceOwnership",
      "outputs": [],
      "stateMutability": "nonpayable",
      "type": "function"
    },
    {
      "inputs": [
        {
          "internalType": "address",
          "name": "newOwner",
          "type": "address"
        }
      ],
      "name": "transferOwnership",
      "outputs": [],
      "stateMutability": "nonpayable",
      "type": "function"
    },
    {
      "inputs": [],
      "name": "withdrawHouseBalance",
      "outputs": [],
      "stateMutability": "payable",
      "type": "function"
    },
    {
      "inputs": [
        {
          "internalType": "bool",
          "name": "_all",
          "type": "bool"
        },
        {
          "internalType": "uint256",
          "name": "_amount",
          "type": "uint256"
        }
      ],
      "name": "withdrawPlayerBalance",
      "outputs": [],
      "stateMutability": "payable",
      "type": "function"
    }
  ],
  "bytecode": "0x608060405234801561001057600080fd5b5061002d61002261007b60201b60201c565b61008360201b60201c565b600560018190555033600360006101000a81548173ffffffffffffffffffffffffffffffffffffffff021916908373ffffffffffffffffffffffffffffffffffffffff160217905550610147565b600033905090565b60008060009054906101000a900473ffffffffffffffffffffffffffffffffffffffff169050816000806101000a81548173ffffffffffffffffffffffffffffffffffffffff021916908373ffffffffffffffffffffffffffffffffffffffff1602179055508173ffffffffffffffffffffffffffffffffffffffff168173ffffffffffffffffffffffffffffffffffffffff167f8be0079c531659141344cd1fd0a4f28419497f9722a3daafe3b4186f6b6457e060405160405180910390a35050565b611b53806101566000396000f3fe6080604052600436106100e85760003560e01c8063944746f01161008a578063dd60808411610059578063dd60808414610280578063e3d670d71461029c578063e8244d48146102d9578063f2fde38b14610302576100e8565b8063944746f014610218578063b163cc3814610241578063c7bafdcb1461024b578063d667dcd714610255576100e8565b80636f9fb98a116100c65780636f9fb98a1461016e578063715018a6146101995780637bc49a95146101b05780638da5cb5b146101ed576100e8565b80630b01517c146100ed5780631ec603e31461011857806367084eb314610143575b600080fd5b3480156100f957600080fd5b5061010261032b565b60405161010f9190611853565b60405180910390f35b34801561012457600080fd5b5061012d610372565b60405161013a91906116ef565b60405180910390f35b34801561014f57600080fd5b50610158610398565b6040516101659190611853565b60405180910390f35b34801561017a57600080fd5b5061018361039e565b6040516101909190611853565b60405180910390f35b3480156101a557600080fd5b506101ae610422565b005b3480156101bc57600080fd5b506101d760048036038101906101d2919061124f565b6104aa565b6040516101e49190611853565b60405180910390f35b3480156101f957600080fd5b506102026107fe565b60405161020f91906116d4565b60405180910390f35b34801561022457600080fd5b5061023f600480360381019061023a91906111c1565b610827565b005b6102496108e7565b005b610253610a59565b005b34801561026157600080fd5b5061026a610b4a565b6040516102779190611853565b60405180910390f35b61029a600480360381019061029591906111ea565b610b50565b005b3480156102a857600080fd5b506102c360048036038101906102be9190611198565b610ed5565b6040516102d09190611853565b60405180910390f35b3480156102e557600080fd5b5061030060048036038101906102fb9190611226565b610eed565b005b34801561030e57600080fd5b5061032960048036038101906103249190611198565b610f80565b005b6000600460003373ffffffffffffffffffffffffffffffffffffffff1673ffffffffffffffffffffffffffffffffffffffff16815260200190815260200160002054905090565b600360009054906101000a900473ffffffffffffffffffffffffffffffffffffffff1681565b60025481565b60006103a8611078565b73ffffffffffffffffffffffffffffffffffffffff166103c66107fe565b73ffffffffffffffffffffffffffffffffffffffff161461041c576040517f08c379a000000000000000000000000000000000000000000000000000000000815260040161041390611813565b60405180910390fd5b47905090565b61042a611078565b73ffffffffffffffffffffffffffffffffffffffff166104486107fe565b73ffffffffffffffffffffffffffffffffffffffff161461049e576040517f08c379a000000000000000000000000000000000000000000000000000000000815260040161049590611813565b60405180910390fd5b6104a86000611080565b565b600060018314806104bb5750600083145b6104fa576040517f08c379a00000000000000000000000000000000000000000000000000000000081526004016104f190611793565b60405180910390fd5b6509184e72a000600460003373ffffffffffffffffffffffffffffffffffffffff1673ffffffffffffffffffffffffffffffffffffffff168152602001908152602001600020541015610582576040517f08c379a000000000000000000000000000000000000000000000000000000000815260040161057990611833565b60405180910390fd5b67016345785d8a00008210156105cd576040517f08c379a00000000000000000000000000000000000000000000000000000000081526004016105c4906117d3565b60405180910390fd5b81600460003373ffffffffffffffffffffffffffffffffffffffff1673ffffffffffffffffffffffffffffffffffffffff16815260200190815260200160002054101561064f576040517f08c379a000000000000000000000000000000000000000000000000000000000815260040161064690611753565b60405180910390fd5b6000600244426040518060400160405280600060ff168152602001600160ff1681525060405160200161068493929190611697565b6040516020818303038152906040528051906020012060001c6106a79190611a32565b90508381141561070c5782600460003373ffffffffffffffffffffffffffffffffffffffff1673ffffffffffffffffffffffffffffffffffffffff168152602001908152602001600020600082825461070091906118ac565b9250508190555061077c565b826002600082825461071e91906118ac565b9250508190555082600460003373ffffffffffffffffffffffffffffffffffffffff1673ffffffffffffffffffffffffffffffffffffffff1681526020019081526020016000206000828254610774919061198d565b925050819055505b7ff728d058f2d38126dbb1fa30ee60cc67bbe206b4403f770aba9d51def2f0143533600460003373ffffffffffffffffffffffffffffffffffffffff1673ffffffffffffffffffffffffffffffffffffffff168152602001908152602001600020546040516107ec92919061170a565b60405180910390a18091505092915050565b60008060009054906101000a900473ffffffffffffffffffffffffffffffffffffffff16905090565b61082f611078565b73ffffffffffffffffffffffffffffffffffffffff1661084d6107fe565b73ffffffffffffffffffffffffffffffffffffffff16146108a3576040517f08c379a000000000000000000000000000000000000000000000000000000000815260040161089a90611813565b60405180910390fd5b80600360006101000a81548173ffffffffffffffffffffffffffffffffffffffff021916908373ffffffffffffffffffffffffffffffffffffffff16021790555050565b67016345785d8a0000341015610932576040517f08c379a0000000000000000000000000000000000000000000000000000000008152600401610929906117f3565b60405180910390fd5b60646001546064610943919061198d565b3461094e9190611933565b6109589190611902565b600460003373ffffffffffffffffffffffffffffffffffffffff1673ffffffffffffffffffffffffffffffffffffffff16815260200190815260200160002060008282546109a691906118ac565b925050819055506064600154346109bd9190611933565b6109c79190611902565b600260008282546109d891906118ac565b925050819055507ff728d058f2d38126dbb1fa30ee60cc67bbe206b4403f770aba9d51def2f0143533600460003373ffffffffffffffffffffffffffffffffffffffff1673ffffffffffffffffffffffffffffffffffffffff16815260200190815260200160002054604051610a4f92919061170a565b60405180910390a1565b610a61611078565b73ffffffffffffffffffffffffffffffffffffffff16610a7f6107fe565b73ffffffffffffffffffffffffffffffffffffffff1614610ad5576040517f08c379a0000000000000000000000000000000000000000000000000000000008152600401610acc90611813565b60405180910390fd5b600360009054906101000a900473ffffffffffffffffffffffffffffffffffffffff1673ffffffffffffffffffffffffffffffffffffffff166108fc6002549081150290604051600060405180830381858888f19350505050158015610b3f573d6000803e3d6000fd5b506000600281905550565b60015481565b6000600460003373ffffffffffffffffffffffffffffffffffffffff1673ffffffffffffffffffffffffffffffffffffffff1681526020019081526020016000205411610b9c57600080fd5b8115610d0157600460003373ffffffffffffffffffffffffffffffffffffffff1673ffffffffffffffffffffffffffffffffffffffff1681526020019081526020016000205460025447610bf0919061198d565b1015610c31576040517f08c379a0000000000000000000000000000000000000000000000000000000008152600401610c2890611733565b60405180910390fd5b3373ffffffffffffffffffffffffffffffffffffffff166108fc600460003373ffffffffffffffffffffffffffffffffffffffff1673ffffffffffffffffffffffffffffffffffffffff168152602001908152602001600020549081150290604051600060405180830381858888f19350505050158015610cb6573d6000803e3d6000fd5b506000600460003373ffffffffffffffffffffffffffffffffffffffff1673ffffffffffffffffffffffffffffffffffffffff16815260200190815260200160002081905550610e59565b80600460003373ffffffffffffffffffffffffffffffffffffffff1673ffffffffffffffffffffffffffffffffffffffff168152602001908152602001600020541015610d83576040517f08c379a0000000000000000000000000000000000000000000000000000000008152600401610d7a906117b3565b60405180910390fd5b3373ffffffffffffffffffffffffffffffffffffffff166108fc829081150290604051600060405180830381858888f19350505050158015610dc9573d6000803e3d6000fd5b5080600460003373ffffffffffffffffffffffffffffffffffffffff1673ffffffffffffffffffffffffffffffffffffffff16815260200190815260200160002054610e15919061198d565b600460003373ffffffffffffffffffffffffffffffffffffffff1673ffffffffffffffffffffffffffffffffffffffff168152602001908152602001600020819055505b7ff728d058f2d38126dbb1fa30ee60cc67bbe206b4403f770aba9d51def2f0143533600460003373ffffffffffffffffffffffffffffffffffffffff1673ffffffffffffffffffffffffffffffffffffffff16815260200190815260200160002054604051610ec992919061170a565b60405180910390a15050565b60046020528060005260406000206000915090505481565b610ef5611078565b73ffffffffffffffffffffffffffffffffffffffff16610f136107fe565b73ffffffffffffffffffffffffffffffffffffffff1614610f69576040517f08c379a0000000000000000000000000000000000000000000000000000000008152600401610f6090611813565b60405180910390fd5b605a8110610f7657600080fd5b8060018190555050565b610f88611078565b73ffffffffffffffffffffffffffffffffffffffff16610fa66107fe565b73ffffffffffffffffffffffffffffffffffffffff1614610ffc576040517f08c379a0000000000000000000000000000000000000000000000000000000008152600401610ff390611813565b60405180910390fd5b600073ffffffffffffffffffffffffffffffffffffffff168173ffffffffffffffffffffffffffffffffffffffff16141561106c576040517f08c379a000000000000000000000000000000000000000000000000000000000815260040161106390611773565b60405180910390fd5b61107581611080565b50565b600033905090565b60008060009054906101000a900473ffffffffffffffffffffffffffffffffffffffff169050816000806101000a81548173ffffffffffffffffffffffffffffffffffffffff021916908373ffffffffffffffffffffffffffffffffffffffff1602179055508173ffffffffffffffffffffffffffffffffffffffff168173ffffffffffffffffffffffffffffffffffffffff167f8be0079c531659141344cd1fd0a4f28419497f9722a3daafe3b4186f6b6457e060405160405180910390a35050565b60008135905061115381611ac1565b92915050565b60008135905061116881611ad8565b92915050565b60008135905061117d81611aef565b92915050565b60008135905061119281611b06565b92915050565b6000602082840312156111aa57600080fd5b60006111b884828501611144565b91505092915050565b6000602082840312156111d357600080fd5b60006111e184828501611159565b91505092915050565b600080604083850312156111fd57600080fd5b600061120b8582860161116e565b925050602061121c85828601611183565b9150509250929050565b60006020828403121561123857600080fd5b600061124684828501611183565b91505092915050565b6000806040838503121561126257600080fd5b600061127085828601611183565b925050602061128185828601611183565b9150509250929050565b60006112978383611688565b60208301905092915050565b6112ac816119d3565b82525050565b6112bb816119c1565b82525050565b6112ca81611878565b6112d48184611890565b92506112df8261186e565b8060005b838110156113105781516112f7878261128b565b965061130283611883565b9250506001810190506112e3565b505050505050565b600061132560508361189b565b91507f576520646f6e2774206861766520656e6f75676820657468657220746f20706160008301527f7920796f75206261636b203a292e20546869732077696c6c206265206669786560208301527f6420696e2073686f72742074696d652e000000000000000000000000000000006040830152606082019050919050565b60006113b160208361189b565b91507f596f7520646f6e7420686176652074686973206d756368206f662065746865726000830152602082019050919050565b60006113f160268361189b565b91507f4f776e61626c653a206e6577206f776e657220697320746865207a65726f206160008301527f64647265737300000000000000000000000000000000000000000000000000006020830152604082019050919050565b6000611457601b8361189b565b91507f596f75722067756573732073686f756c642062652030206f72203100000000006000830152602082019050919050565b6000611497602f8361189b565b91507f596f7520646f6e7420686176652074686973206d756368206f6620657468657260008301527f206f6e20796f752062616c616e636500000000000000000000000000000000006020830152604082019050919050565b60006114fd60278361189b565b91507f596f752073686f756c64206174206c6561737420706c6179207769746820302e60008301527f31206574686572000000000000000000000000000000000000000000000000006020830152604082019050919050565b600061156360228361189b565b91507f596f752073686f756c642073656e64206174206c6561737420302e312065746860008301527f65720000000000000000000000000000000000000000000000000000000000006020830152604082019050919050565b60006115c960208361189b565b91507f4f776e61626c653a2063616c6c6572206973206e6f7420746865206f776e65726000830152602082019050919050565b600061160960228361189b565b91507f596f7520646f6e74206861766520656e6f75676820657468657220746f20706c60008301527f61790000000000000000000000000000000000000000000000000000000000006020830152604082019050919050565b61166b81611a11565b82525050565b61168261167d82611a11565b611a28565b82525050565b61169181611a1b565b82525050565b60006116a38286611671565b6020820191506116b38285611671565b6020820191506116c382846112c1565b604082019150819050949350505050565b60006020820190506116e960008301846112b2565b92915050565b600060208201905061170460008301846112a3565b92915050565b600060408201905061171f60008301856112b2565b61172c6020830184611662565b9392505050565b6000602082019050818103600083015261174c81611318565b9050919050565b6000602082019050818103600083015261176c816113a4565b9050919050565b6000602082019050818103600083015261178c816113e4565b9050919050565b600060208201905081810360008301526117ac8161144a565b9050919050565b600060208201905081810360008301526117cc8161148a565b9050919050565b600060208201905081810360008301526117ec816114f0565b9050919050565b6000602082019050818103600083015261180c81611556565b9050919050565b6000602082019050818103600083015261182c816115bc565b9050919050565b6000602082019050818103600083015261184c816115fc565b9050919050565b60006020820190506118686000830184611662565b92915050565b6000819050919050565b600060029050919050565b6000602082019050919050565b600081905092915050565b600082825260208201905092915050565b60006118b782611a11565b91506118c283611a11565b9250827fffffffffffffffffffffffffffffffffffffffffffffffffffffffffffffffff038211156118f7576118f6611a63565b5b828201905092915050565b600061190d82611a11565b915061191883611a11565b92508261192857611927611a92565b5b828204905092915050565b600061193e82611a11565b915061194983611a11565b9250817fffffffffffffffffffffffffffffffffffffffffffffffffffffffffffffffff048311821515161561198257611981611a63565b5b828202905092915050565b600061199882611a11565b91506119a383611a11565b9250828210156119b6576119b5611a63565b5b828203905092915050565b60006119cc826119f1565b9050919050565b60006119de826119f1565b9050919050565b60008115159050919050565b600073ffffffffffffffffffffffffffffffffffffffff82169050919050565b6000819050919050565b600060ff82169050919050565b6000819050919050565b6000611a3d82611a11565b9150611a4883611a11565b925082611a5857611a57611a92565b5b828206905092915050565b7f4e487b7100000000000000000000000000000000000000000000000000000000600052601160045260246000fd5b7f4e487b7100000000000000000000000000000000000000000000000000000000600052601260045260246000fd5b611aca816119c1565b8114611ad557600080fd5b50565b611ae1816119d3565b8114611aec57600080fd5b50565b611af8816119e5565b8114611b0357600080fd5b50565b611b0f81611a11565b8114611b1a57600080fd5b5056fea2646970667358221220951f4974a7b2105513ea089b975c30bdd6eb0315c18cb1b78f61814dce13204b64736f6c63430008000033",
  "linkReferences": {},
  "deployedLinkReferences": {}
}